:020000021000EC
:10B0000000400020C9D6010009D701000BD701007C
:10B010000000000000000000000000000000000030
:10B020000000000000000000000000000DD701003B
:10B0300000000000000000000FD7010011D7010040
:10B0400013D7010013D701008DDD010013D70100D4
:10B0500013D701000000000013D7010013D701002F
:10B0600013D70100ADD8010013D7010013D7010099
:10B0700013D7010013D7010013D7010013D7010024
:10B0800013D7010071D7010013D7010013D70100B6
:10B0900013D7010013D7010013D7010013D7010004
:10B0A00013D7010013D701000000000000000000CA
:10B0B0000000000000000000000000000000000090
:10B0C000054B0648033310B51B1A062B03D9044B56
:10B0D000002B00D0984710BD74210020742100205F
:10B0E000000000000648074910B5091A8910CB0F67
:10B0F0005918491003D0044B002B00D0984710BDBD
:10B1000074210020742100200000000010B5074CBD
:10B110002378002B09D1FFF7D3FF054B002B02D07A
:10B12000044800E000BF0123237010BD74210020FB
:10B130000000000064F20100094B10B5002B03D0A1
:10B140000849094800E000BF08480368002B02D105
:10B15000FFF7C8FF10BD064B002BF9D09847F7E763
:10B16000000000007821002064F20100702100201E
:10B1700000000000164B002B00D1144B9D464022CE
:10B1800092029A1A924600218B460F461348144A9F
:10B19000121A03F01DFC0F4B002B00D098470E4BEA
:10B1A000002B00D098470020002104000D000D481E
:10B1B000002802D00C4800E000BF03F0B7FB2000DD
:10B1C000290002F0FBFD03F09BFBC04600000800D5
:10B1D000004000200000000000000000742100205A
:10B1E000EC240020000000000000000010B5040066
:10B1F00000F04CFEC6235B00E0580433E3581430E3
:10B20000C01A142102F0E4FE080010BD08B4034B7C
:10B210009C46034BC01A08BC6047C046EDB1010014
:10B220007801000010B5040000F030FEC8235B0078
:10B23000E058043BE358984204D020189530FF3082
:10B24000007801E00120404210BD000008B4034B2B
:10B250009C46034BC01A08BC6047C04625B201009B
:10B260007801000070B50400C82500F00FFEC62369
:10B270006D005B006059E358984209D001301421F9
:10B2800002F0A6FE615161189531FF31087801E0A6
:10B290000120404270BD000008B4034B9C46034BA4
:10B2A000C01A08BC6047C04665B2010078010000C2
:10B2B00010B500F015FE10BD70B504000D0000F0D3
:10B2C000E5FD87239B00E01800F05AFC0026B04201
:10B2D0000FD0D4214900635801365A1CE318AD330E
:10B2E000FF3362501D70142A03D123682000DB6EE7
:10B2F0009847300070BD000008B4034B9C46034BD8
:10B30000C01A08BC6047C046B9B20100780100000D
:10B31000F7B5040000F074FF2300FA22002579330A
:10B32000FF3392005D609A603B4B26001A000832A2
:10B3300022601A00883262601A00A032A2602200E5
:10B34000C136FF36C833FC32D3673000334901F0D1
:10B3500024F82000324FC9303900324AFF3000F063
:10B3600037FC2300E133FF330193042214232E49D9
:10B37000019800F0D9FB81239B003900E0182B4A8B
:10B3800000F026FC87239B00E01810221423284994
:10B3900000F0CAFB90239B00264A3900E01800F019
:10B3A00017FCD4235B00E550183BE550043BE55007
:10B3B000043BE550204B310020001C6000F0D3FE20
:10B3C0002100CD31FF31200000F0CDFE300000F033
:10B3D000F8FA0100200000F065FD2100E5312000B1
:10B3E000FF3100F0C0FE82239B00E118200000F036
:10B3F000BAFE124A2900019800F0D4FB88239B0072
:10B40000E118200000F0AFFE91239B002000E1181E
:10B4100000F0A9FE2000FEBD68ED0100B8EC0100BF
:10B42000E2EC0100DDEC0100E7EC01000CED0100B5
:10B4300026ED01004BED010090210020A5B4010094
:10B440000FB410B5029800F06DFD10BC08BC04B03C
:10B45000184710B5040002F065F9C4235B00E358F7
:10B460006433984203D2200000F010FD03E023680B
:10B470002000DB6E984710BDF8B5C62705000C000C
:10B480008E187F00B4420CD0EB591421581C02F0E6
:10B490009FFDE951691823789531FF310B70013414
:10B4A000F0E7F8BD094B70B51D680B680C0008008B
:10B4B000DB689847236806001B6920009847310025
:10B4C00002002800FFF7D8FF70BDC0469021002081
:10B4D00070B5D4256D0042590400002A12D0010035
:10B4E0008723AD319B00C018D2B2FF3100F005FBBD
:10B4F00002F018F9C4235B00E050002320006351E0
:10B5000000F0C4FC70BD000008B4034B9C46034B24
:10B51000C01A08BC6047C046D1B4010078010000E1
:10B52000164B10B51A00083202601A0088324260C9
:10B530001A00A03282600200C833FC32D367902325
:10B540009B000400C01800F035FB87239B00E01827
:10B5500000F0BCFA81239B00E01800F02BFB2000D8
:10B56000E130FF3000F0B2FA2000C930FF3000F0C7
:10B5700021FB200000F0FCFD200010BD68ED010063
:10B5800010B50400FFF7CCFF200002F02BFC2000D8
:10B5900010BD70B505000C00081E07D003F0D8FAE6
:10B5A0002B6802005B6821002800984770BD0000EE
:10B5B00010B50021112002F0BFF90221112002F084
:10B5C000BBF90021122002F0B7F90221122002F08B
:10B5D000B3F90021132002F0AFF90221132002F089
:10B5E000ABF90021142002F0A7F90221142002F087
:10B5F000A3F90121152002F09FF90121152002F085
:10B60000B9F90121162002F097F90121162002F064
:10B61000B1F90121172002F08FF90121172002F062
:10B62000A9F90121182002F087F90121182002F060
:10B63000A1F9044C0449200000F037FC2000FFF77A
:10B64000FFFE10BD1422002048EE0100F7B50320D4
:10B6500002F09EF80023B34EB34C30602360B34B2E
:10B6600025681A680193954209DAB14BAD00E85894
:10B6700002F096F9AF4BE85023680133EEE7AE4D88
:10B680002800FFF7E6FEAD4B32681B689A420BDDDF
:10B690002F007937FF37AA493800FFF77AFF0A22CF
:10B6A0003168380002F0F2F90023019A2360126831
:10B6B00023680092934200DBD9E09E4FA14A9B0091
:10B6C000DE599A58964223D0002E10D19E4A31005E
:10B6D000985802F04FF902F025F89C4B9C491860ED
:10B6E0009C4B1E7023689B005A5801325A502368A5
:10B6F0009B00FE58012E06D1934A3100985802F063
:10B7000039F9954B1E7023688E4A9B00F958995061
:10B7100002F008F88D4E3368C01AFA23DB00984215
:10B7200007D9012200218B4B1A702368884A9B009D
:10B73000995001F0F7FF3368C01AFA235B00984272
:10B7400000D891E02368824E9A009259002A00D1D5
:10B750008AE0814F3A78002A00D185E0002B05D19C
:10B7600028007930FF307D49FFF713FF2368012B54
:10B7700005D128007930FF307949FFF70AFF2368A7
:10B78000022B05D128007930FF307649FFF701FF01
:10B790002368032B05D128007930FF307249FFF769
:10B7A000F8FE2368042B05D128007930FF306F495B
:10B7B000FFF7EFFE2368052B05D128007930FF3015
:10B7C0006B49FFF7E6FE2368062B05D12800793088
:10B7D000FF306849FFF7DDFE2368072B05D12800FD
:10B7E0007930FF306449FFF7D4FE23689B00F3589B
:10B7F000012B05D128007930FF306049FFF7C9FEE1
:10B8000023689B00F358022B05D128007930FF30C4
:10B810005B49FFF7BEFE23689B00F358032B05D15D
:10B8200028007930FF305749FFF7B3FE23689B00AB
:10B83000F358042B05D128007930FF305249FFF727
:10B84000A8FE23689B00F358052B05D1280079300A
:10B85000FF304E49FFF79DFE0022236832209B00F7
:10B860003A70F25001F076FF236801331DE728009B
:10B87000FFF71EFD2026002852D02800FFF7F2FC1B
:10B88000434C206000284BDDB04341280ED12E4FA1
:10B890000021386802F06EF8FA20400001F05AFFEB
:10B8A0000121386802F066F8002323602368B3435F
:10B8B000422B0ED1244F0021786802F05BF8FA2069
:10B8C000400001F047FF0121786802F053F800239F
:10B8D00023602368B343432B0ED11B4F0021B8686C
:10B8E00002F048F8FA20400001F034FF0121B86866
:10B8F00002F040F8002323602368B343442BBCD1FB
:10B90000114F0021F86802F035F8FA20400001F0EC
:10B9100021FF0121F86802F02DF800232360ACE735
:10B92000F7BDC0466C240020942100209420002004
:10B9300084200020E42100201422002098200020F0
:10B9400056EE0100982100209C20002008220020B3
:10B95000C02100200C220020BC2100202AEF010081
:10B9600064F0010069F001005FF001002FEF0100B9
:10B970005AEE01005CEE01005EEE010060EE010097
:10B9800062EE010064EE010054EE0100DBEC010008
:10B990001022002010B5064C092302220A212000A3
:10B9A000FFF7B6FC034A0449200002F093FF10BDE4
:10B9B000142200208020002021B501000160828037
:10B9C0007047006870478088704729DF704728DF1C
:10B9D0007047036818680130431E9841C0B2704731
:10B9E00080235B0510B51969006802F06BFA04004A
:10B9F0002000FFF7ECFF1128FAD010BD70B51C0035
:10BA000005000E00FFF7ECFFA408220031002868B3
:10BA1000FFF7DBFF1128F8D070BD002210B50068D9
:10BA20009A4203D284588C500432F9E710BD37B5DE
:10BA3000062504002A000021684602F0C9FF2A00FA
:10BA4000201D694602F0ACFF431E9841C0B23EBDC6
:10BA500010B50430062202F0B2FF10BD10B504305C
:10BA60000622002102F0B4FF10BD10B504000160F1
:10BA7000FFF7F4FF200010BD807A7047C068704760
:10BA8000007C704700207047C368585C704770B5F1
:10BA90000D00110002680400D6691A00B0470123A6
:10BAA000A374A369002B02D021002800984770BD21
:10BAB00070B5040008000D0003F04AF82368C2B214
:10BAC0002900DB692000984770BD0000054B10B5C8
:10BAD000083304000360C068002801D002F056FF5C
:10BAE000200010BD68EE010010B50400FFF7EEFF66
:10BAF000200002F077F9200010BD10B50400807A14
:10BB0000031C904200D9131CDAB22374E06802F0DF
:10BB100056FF63690120002B04D01A6821001268C7
:10BB20001800904710BD0000F8B51D000400170074
:10BB30000430104A00F09CF80F4B083323602B1C94
:10BB4000142D00D9142300212000A372E160217478
:10BB50006774A174E17461610C221830DEB202F0E6
:10BB600037FF002D03D0300002F006FFE060200018
:10BB7000F8BDC0460328000068EE0100407C704715
:10BB8000C07C704710B5C274531E9A4102239A1AA2
:10BB900006329A4013580C00002B02D001002000FE
:10BBA000984710BD0B2902D8063189000A5070470A
:10BBB00041617047704700697047007D70470369B5
:10BBC000585C704710B5040002F00CF9200010BD5D
:10BBD00070B51500A42204009201043000F048F86A
:10BBE000044B256108332800236002F0B1FF207563
:10BBF000200070BD98EE010070477047704700202C
:10BC00007047704770470020704700207047002041
:10BC100070470020704700207047002070470020C8
:10BC200070470020704700207047002070470020B8
:10BC3000704700207047704770477047704710B5D5
:10BC4000040002F0CFF8200010BD0000064B0122D6
:10BC5000083303606423838000238272C3800381DE
:10BC6000C36003617047C046B4EE010001617047D4
:10BC700010B50400FFF7A2FE024A2000137801333A
:10BC8000137010BD70240020014B18787047C04617
:10BC90007024002010B5C06803681B6A984710BD67
:10BCA00008B4024B9C46043808BC604795BC0100B0
:10BCB00010B5C06803685B6A984710BD08B4024BB2
:10BCC0009C46043808BC6047B1BC010010B5C06890
:10BCD00003689B6A984710BD08B4024B9C46043821
:10BCE00008BC6047CDBC010010B5C0680368DB6AC2
:10BCF000984710BD08B4024B9C46043808BC604706
:10BD0000E9BC010010B5C06803681B6B984710BD03
:10BD100008B4024B9C46083808BC604705BD0100CA
:10BD200010B5C06803685B6B984710BD08B4024B40
:10BD30009C46083808BC604721BD010010B5C068AA
:10BD400003689B6B984710BD08B4024B9C460838AB
:10BD500008BC60473DBD010010B5C0680468E46BD5
:10BD6000A04710BD08B4024B9C46083808BC604789
:10BD700059BD010010B5C06803681B6C984710BD21
:10BD800008B4024B9C46083808BC604775BD0100EA
:10BD900010B5C06803685B6C984710BD08B4024BCF
:10BDA0009C46083808BC604791BD010010B5C068CA
:10BDB00003689B6C984710BD08B4024B9C4608383A
:10BDC00008BC6047ADBD010010B5C0680368DB6CFE
:10BDD000984710BD08B4024B9C46083808BC604721
:10BDE000C9BD01000300FC335B6F10B5002B02D00E
:10BDF0005D30FF30984710BD0300FC339B6F10B5DA
:10BE0000002B02D05D30FF30984710BD01001000BC
:10BE100010B504681A005D3102AB1B78FF31646A0B
:10BE2000A04710BD7047704770B5050004005D3530
:10BE3000FF3511002800FC34FFF70AFEE36E002BEB
:10BE400001D02800984770BD0300FC335D301B6FA4
:10BE5000FF3010B50400002B00D098472000FFF7FA
:10BE6000FDFD10BD010010B55D311000FF311A005D
:10BE7000FFF788FE10BD010010B510005D311A00FB
:10BE800002AB1B78FF3100F06BFA10BD10B5C06833
:10BE90000368DB68984710BD10B5C06803681B696C
:10BEA000984710BD88300160704798300160704736
:10BEB00070B50600A436336804000D00002B05D1D0
:10BEC00000F024FA800002F057FD30602000A83016
:10BED000037832689B009D5003780133037070BD76
:10BEE00010B50400FFF7D2FF20005D30FF30FFF7F0
:10BEF0009EFD10BD10B50400FFF7C6FE800002F0E5
:10BF00003BFD23009C331860103303600C33436007
:10BF1000243383602033C3600C3303610523A034D2
:10BF2000237010BD30210023F0B5AFB002AA521823
:10BF3000137003008C331968040000291DD008A871
:10BF400000F033FA08A800F061FA022383429B4113
:10BF50005B4216AA143305001070537008A800F055
:10BF600053FA1A260100522002AB2A00761BC01891
:10BF700002F025FDF6B2012501E01C260D0023008C
:10BF800088331968002924D008A800F00EFA08A800
:10BF900000F03CFA431C0700B3421ADA1F231A00D0
:10BFA0006A4316A817540622022F00D8043A6B439E
:10BFB000C3185A7008A8079300F026FA079B0100DF
:10BFC0003A00981C02F0FBFC023E0135F61BEDB274
:10BFD000F6B2230090331968002915D01A79002A87
:10BFE00012D0022E10D9531CB34201DB023EF2B232
:10BFF0001F20684316ABC2541818FF234370023049
:10C0000002F0DDFC0135EDB2230098331E68002EEE
:10C0100022D0300002F09CFDC0B21D2804D830228E
:10C0200002AB9B18187004E030211D2302AA52189D
:10C030001370302202AB9B181A7809238242804188
:10C0400031214042181A02AB5B181870322002AB43
:10C050003100C01802F0B3FC27009C373B68002B6E
:10C0600002D12000FFF746FF002307932300A033EF
:10C070001B78079A9A4201DB00271EE0079B3A686B
:10C080009B009E583000FFF79EFC2C4B984205D138
:10C09000301E00D0301F211DFFF78AFD079B0133A2
:10C0A000E3E72300A4331B68BA00D6583000FFF73B
:10C0B0008AFC224B984206D001372300A8331B7814
:10C0C0009F42EEDB07E0301E00D0301F2100083118
:10C0D00000F059F9F0E7002B0BD021002931FF3196
:10C0E0002000FFF7E5FE21003531FF312000FFF78A
:10C0F000DFFE3022210002AB9B18A8311B780978A3
:10C10000E0685A1E9341026804912100A431096835
:10C11000DBB203912100A0310978029121009C310A
:10C12000096801910EA900919668290016AAB047E6
:10C13000E06803681B6D98472FB0F0BD032800002E
:10C1400070B506009C36336804000D00002B01D149
:10C15000FFF7D0FEA034237832689B009D502378EF
:10C160000133237070BD10B5FFF7EAFF10BD00006A
:10C17000184B10B51A00083202601A000400883308
:10C18000703283604260FFF787FE2300A433186893
:10C19000002801D002F0FAFB23009C331868002825
:10C1A00001D002F0F3FB20003130FF3000F0B4F892
:10C1B000601DFF30FFF78AFC2000D830FFF786FCB7
:10C1C0002000B430FFF782FC2000103000F012FE97
:10C1D000200010BD3CEF010010B50400FFF7C8FFC0
:10C1E000200001F0FFFD200010BD07B56B46D9808F
:10C1F0000633D83002221900FFF77FFC07BD00008C
:10C20000354BF7B51A00083202601A008833836094
:10C21000030004007032103342601800009301F0F4
:10C220002FFA23000025200088335D609D601D7378
:10C230001D615D611D76DD611D6004331D77274939
:10C24000AC3000F0AAF82300B43301930222132388
:10C2500023490198FFF768FC022320001A002149B6
:10C26000D830FFF761FC20001F4FFC30390000F090
:10C2700094F81E4E601D042331002022FF30FFF78A
:10C2800053FC200029303900FF3000F07EF82000F8
:10C29000313031002022FF3000F046F820005D30C0
:10C2A0002100FF30FFF7E1FB2000009B6930E360D5
:10C2B00010222900FF3002F08BFB0D490198FFF797
:10C2C000F7FB29002000FFF790FFE0682100FFF74F
:10C2D000CDFC2000FEBDC0463CEF010018EF010080
:10C2E0001DEF010022EF010027EF01002CEF0100FC
:10C2F00031EF010010B50400FFF760FB024A200097
:10C3000013780133137010BD71240020014B18788D
:10C310007047C04671240020704710B5040001F03A
:10C3200061FD200010BD000070B504001500043050
:10C33000094AFFF7DFFF00212000084BA5720833F0
:10C340002360E31CE1720422D9772830616202F095
:10C350003FFB200070BDC04603280000E4EF010051
:10C3600070B50400C3720D000C3011001A0002F009
:10C3700026FB0122E31CDA77A36A002B02D02100FE
:10C380002800984770BD41627047A02210B5040094
:10C390009201FFF7AFFF200010BDA02210B50400EE
:10C3A0009201FFF765FC200010BDF0B500230500E9
:10C3B00085B003AE2960037508000F0033707370F9
:10C3C000B37002F0C5FB441E002C1ADB2B7D0193D9
:10C3D0000F2B16D83A5D2D2A01D101340FE03B19FD
:10C3E000013B1B787270002110223000337002F084
:10C3F0003BFC019BEB1818712B7D01332B75023C24
:10C40000E2E7280005B0F0BD04307047007D7047BA
:10C4100071DF704772DF704773DF704775DF7047F9
:10C4200076DF704777DF704778DF70477ADF7047D5
:10C430007CDF70477EDF70477FDF704786DF7047A5
:10C4400090DF704792DF704796DF704798DF704744
:10C4500099DF7047A0DF7047A2DF7047A3DF704706
:10C46000A4DF7047A6DF7047A9DF704760DF704721
:10C4700061DF704762DF704763DF704753DF7047EB
:10C4800010DF704711DF70475C300078431E984121
:10C49000C0B2704703000200002030B56D331C7835
:10C4A000A04213DA156F0301EB181D688D420BD102
:10C4B0000020D98981420AD01B7B9B0707D57432A3
:10C4C00013780130584002E00130E9E7002030BD28
:10C4D0000300002270B56D331C78A24219DA056F93
:10C4E0001301EB181D688D4211D10022D9899142A8
:10C4F00010D01B7B9B070DD50300012474331C70E7
:10C50000008FFFF7A1FF42424241D2B202E0013266
:10C51000E3E70022100070BD02000300002030B5E8
:10C520006D321478A0421BDA1D6F0201AA1815683B
:10C530008D4213D10020D189814212D0127B110784
:10C5400004D574331B78013058400AE0520708D5EF
:10C550005C331878431E9841C0B202E00130E1E735
:10C56000002030BDF0B587B0050001936D3006782E
:10C570000020B0422FDA2F6F04013C1927688F4248
:10C5800027D10020E689864226D0217B0C24214237
:10C5900022D02F005C373C7884421DD0022309074B
:10C5A000C90F5B1A03A90B706B469B888A60CB800E
:10C5B0002B0001227433013C1A7048704E80888031
:10C5C0003C70288FFFF742FF030058425841C0B229
:10C5D00002E00130CDE7002007B0F0BD03000022EB
:10C5E00030B56D331C78A24212DA056F1301EB18D7
:10C5F0001D688D420AD10020DA89824209D0187B59
:10C6000030231840431E9841C0B202E00132EAE7ED
:10C61000002030BD7FB50300020000206D331C7880
:10C62000A0422ADA156F0301EB181D688D4222D152
:10C630000020DC89844221D030211B7B0B421DD09D
:10C6400002266946DB06DB0F8D19F31A01A92B8040
:10C650004870012388801000E41874300B70037058
:10C660004C80CE808D60108FFFF7F0FE03005842A3
:10C670005841C0B202E00130D2E7002004B070BDE2
:10C6800010B503681B6C984710BD0300002230B53D
:10C690006D330400187885B0824227DA256F1301C4
:10C6A000EB181D688D421FD10020DA8982421ED00E
:10C6B000197B302319421AD06B4658809D1C0123E8
:10C6C00001A9D2184A800222CA80220074320B705B
:10C6D0001370487088808D60208FFFF7B7FE0300CD
:10C6E00058425841C0B202E00132D5E7002005B0FF
:10C6F00030BD0B0010B5273314DB0B001D3313DBEB
:10C700000B00133312DB0B000F3311DB0B000B3369
:10C7100010DBCB1D10DBCB1C10DBCB17581AC00F66
:10C7200080000DE028200AE01E2008E0142006E02A
:10C73000102004E00C2002E0082000E00420404229
:10C7400040B2FFF76FFE43425841C0B210BD10B572
:10C750001321008FFFF764FE10BD13B50400684677
:10C76000FFF756FE2069002805D06A4603680132AB
:10C77000DB692100984713BD002337B5040001A8E9
:10C780000193FFF77BFE019801F0B8FF0022074BF1
:10C7900001F03AFD01F0F4FF021C2069002803D0EB
:10C7A00001680D6A2100A84737BDC0460000D03F90
:10C7B000704710B5040086B018220021684602F0C8
:10C7C00007F90023A27A9A4200D103336A46137014
:10C7D000A0880A21000101F0FFFB6B461882684621
:10C7E000FFF71AFE06B010BD0300F0B55D330C0074
:10C7F0001A7805000023142191B0934262DA0E00EA
:10C800005E43286E86193068A04209D12000FFF7E8
:10C81000B5F90123184255D07368002B02D151E0BD
:10C820000133EAE72F00290033373B7814311A002F
:10C8300008A8019302F0C3F8236820001B699847F9
:10C84000019B04301818C3B201931F2B3AD87068AB
:10C85000FFF7B7F8010002A8FFF7A7FD2368200043
:10C860001B693E789847182202AB9B1803309855F5
:10C870003E7808AB9B19023A02A85A70FFF7C4FD34
:10C88000023608AB01000222981902F098F83E78AF
:10C8900008AB04369E1923682000DB68984723689C
:10C8A00007001B692000984739000200300002F0A1
:10C8B00086F8002301991A0008A8FFF7ABFD6C6306
:10C8C000012000E0002011B0F0BD0A21F0B5D9B080
:10C8D00004ABC9188E2311AE5B00040030000B803E
:10C8E000FFF7C6FD011E00D067E23388302B00D170
:10C8F00049E111D8112B5BD004D8012B21D0102B8A
:10C9000025D05AE2142B00D1CEE0192B00D1DAE069
:10C91000132B00D051E2A3E0382B00D1FFE106D861
:10C92000322B00D17EE1362B00D1DEE145E2502BE7
:10C9300000D1DBE0522B00D11FE1392B00D03CE2CB
:10C9400011E25C342278337AD318237035E2B08850
:10C9500009AD20872900FFF78DFD23002A785C337D
:10C960001A702069002806D03D22036804A95218D5
:10C970001B6821009847E288052A0FD9C82123891E
:10C9800009018B420AD86B800023AB809133FF33BF
:10C990002A80EB80208F2900FFF740FD23006433BD
:10C9A0001B78002B00D108E2208F002201211CE11E
:10C9B00001235B422387230005005C3318702300AA
:10C9C0005D331B789D4218DA142600276E43236ED0
:10C9D0009E19377477743068FFF7D2F8B8420AD0DE
:10C9E0002069B84207D0036832685B6921009C4621
:10C9F0003B006646B0470135E1E72069002803D0D7
:10CA0000036821005B68984700250C2623006433E7
:10CA10001B789D4204DB0023250018006D350AE0D9
:10CA200030006843A36E042218180830002101F07A
:10CA3000CFFF0135EAE72A78934208DA216F1A011D
:10CA400089180873216F01338A18D081F3E7230016
:10CA5000002274331A70236820009B699847ACE168
:10CA6000E068002800D1A2E1FEF7B3FF002800D063
:10CA70009DE107AD05220021280001F0A9FF012357
:10CA80003022EB7013432B70072300216B700933A6
:10CA9000AB70A36D0D9109930E910F910A910B91BB
:10CAA000208F09AB2A0086E1A56D338A6A8A208F20
:10CAB0009A4203D10B000A00290001E00B000A0092
:10CAC000FFF7BCFC79E1327A002A00D075E1E0681A
:10CAD000002804D021001C233C31FEF78FFF206981
:10CAE000002800D169E103689B68FBE00500F3883A
:10CAF000039323005D331B789D4200DB5DE1142727
:10CB00006F43236E039ADF193B8993420CD120694E
:10CB1000002800D151E1327C036800921D69462350
:10CB200004AA9B183A683DE1BB89039A934222D13B
:10CB3000F37CB27C1B021343012299B213403B7475
:10CB400001234A081A4002330B407A745A1E93415B
:10CB50003868DBB20493FFF713F8049B98420AD0BD
:10CB60002069002800D128E103683A685D69210046
:10CB7000049BA84721E10135BBE7208F0B000A0089
:10CB8000FFF772FC19E1F588002D31D14227B389F6
:10CB9000039304ABFF18039B9D421EDA230064330A
:10CBA0001A780023934215DA0C205843A16E081816
:10CBB000B9788C4681798C450AD139888C46818830
:10CBC0008C4505D1391D0422083001F0F8FE01E042
:10CBD0000133E7E701350837DDE70022039B208FAB
:10CBE000DB00F618B189013189B2FFF729FCE4E0D6
:10CBF000230005000C2164331A78954200DBDCE049
:10CC00000B006B43A06EC3181889002808D0588900
:10CC1000002805D0220008336C321570190057E047
:10CC20000135EAE72000F3886C30002B3DD10C2160
:10CC300042220378A76E4B43FB189B68099304AB11
:10CC4000D2180A23B58905916B430E33F318039369
:10CC500023006D330493039B9A4221D00025049B4B
:10CC60001B789D4217DA266F2B01F3180599067879
:10CC70004E435968F6598E420BD191789E7AB14253
:10CC800007D111881E89B14203D116791E73168906
:10CC9000DE810135E3E7158909AB1D800A32DAE749
:10CCA000208F09A9FFF7CEFB87E0230064331D78AE
:10CCB0000C23027801325343AA420EDAA16EC9183E
:10CCC0000E89002E06D04E89002E03D00270083146
:10CCD000208FE7E701320C33EEE7206900286CD0A3
:10CCE0000368DB682100984767E0230074331870FD
:10CCF0000623F288FF339A4202D1E368002B19D150
:10CD000023006D3318780023B189834255DA256FEB
:10CD10001A01AA18D5898D4239D00133F5E72300CD
:10CD2000743318700623F288FF339A4245D1E368C2
:10CD3000002B42D009AD0522280001F049FE012157
:10CD4000EA782B780A43EA7070220B439343403A07
:10CD500013432B7007236B700933AB70208F2900AE
:10CD6000FFF768FB29E0B37BB589022B03D1208F45
:10CD70002900FFF76DFB23006D33197800238B42E8
:10CD80001BDA206F1A018218D089A8420DD12069C0
:10CD9000002812D0317C036800919D69462304A9C4
:10CDA00012685B182100A84707E00133E7E700237A
:10CDB00085211A00208FFFF73FFB59B0F0BD10B559
:10CDC0000400FFF75FFB206F002801D001F0DEFDBB
:10CDD000A06E002801D001F0D9FD206E002801D0FE
:10CDE00001F0D4FD220000235D326D341370D37145
:10CDF000237010BD10B50400044B08330360FFF727
:10CE0000DEFF2000FEF71AFF200010BDF8EF010042
:10CE100010B50400FFF7EEFF200000F0E3FF200054
:10CE200010BD000013B56C4612886180228001009D
:10CE30006A4602480193FFF713FB16BDFFFF00008F
:10CE4000F0B5F3B002937AAB1B78070007937CAB85
:10CE50001B7801911400CF4904220EA8099301F018
:10CE6000AEFD00210EA8FFF70BFB13ADCA4B142239
:10CE70000021280001260F9301F0AAFD0A230FA923
:10CE800028002B802E732E72FFF7F0FA282300253E
:10CE900011A80380DB1843804133FF33C3808580B2
:10CEA000FFF7C4FA2800FFF7BDFA02233B750433ED
:10CEB000BB753B00032233337E751A70019BAB4276
:10CEC0001FD0AC421DD01F23019A5343E618B44231
:10CED00017D03D003335287823783A18013313757D
:10CEE00063780230C0B25375287038182278A11CBC
:10CEF000143001F064FD23782A781F34D3182B7086
:10CF0000E5E70023029A9A421DD0789A9A421AD0F5
:10CF10001F261500029A5643AA190192019AAA42A5
:10CF200011D02E782AA8721CC2546978C218023314
:10CF3000DCB251700019A91C3200341901F03FFD18
:10CF40001F35E3B2EAE73A00380033321178143083
:10CF50002AAAFFF75FFA0020FFF766FA0024079B72
:10CF60009C420EDA799AA300D058FEF72CFD8B4B29
:10CF7000984204D13A005D321378013313700134C2
:10CF8000EDE73B005D3318780338C0B21870142306
:10CF9000584301F0F1FC00230BAA1380799A3866FC
:10CFA0000292019308930493019B079A934200DB3A
:10CFB00011E2029B1D682800FEF703FD01001DA879
:10CFC000FFF7F3F91DA8FFF71FFA04001DA8FFF7EC
:10CFD0001DFA022808D1637821781B0210AA0B439E
:10CFE00013800123937014E032AE10222100300030
:10CFF00001F0E5FC637B227B1B02134310AA138024
:10D0000000231A21737333730AABC9183000FFF77A
:10D0100033FA2800FEF7D7FCA0239B01984212D1D7
:10D020002800FEF7CEFC5E4901F088FD002800D103
:10D03000CAE12800FEF7C5FC5A4901F07FFD00282F
:10D0400000D1C1E182E22800FEF7BDFC534B9842BB
:10D0500000D048E12C1E00D02C1F251D2800FEF713
:10D06000B0FC514901F06AFD002813D101221023C0
:10D0700032AD13432B7023682000DB689847236888
:10D0800006001B6920009847310082B22800FFF794
:10D09000CFF999E12800FEF794FC444901F04EFDD8
:10D0A000002807D123682000DB6898470088FFF735
:10D0B000BBF989E12800FEF784FC3D4901F03EFD03
:10D0C000002800D180E12000FEF758FD236803907E
:10D0D0001B69200098470AABD88014230026049AC5
:10D0E00031005A433B6E05929B18089A1C605A60A7
:10D0F0001E745E741C2223A801F06AFC01226421C4
:10D10000039B93430AAA521813703023039A1A42BE
:10D1100013D00CAD03223100280001F059FC10237C
:10D1200001221A432A70012213436B70AB78053237
:10D130009343043A1343AB7028950DAD03220021AD
:10D14000280001F045FC3223039A1A4212D0FA68F3
:10D15000233B002A06D001212A789A430A43134030
:10D16000202205E001212A789A430A431340102225
:10D1700013432B700C23039A1A4223D0FA6803330B
:10D180000DA9002A16D001204A789A430243134081
:10D19000202215E0F4EF0100802000200328000089
:10D1A00018EF010027EF01001DEF010022EF010041
:10D1B0002CEF010001204A789A43024313401022C9
:10D1C00013434B7006220DADAB7820009343043A15
:10D1D0001343AB7023689B69984701210122AB7808
:10D1E00082438B431343AB70019B5B180393029BF9
:10D1F0000693079A039B934238DA069B5E683000D9
:10D20000FEF7E1FBA4239B0198422FD1351E00D0ED
:10D21000351F2E1D3000FEF7D4FBD34901F08EFCE4
:10D22000002810D12B6828009B68984724902B6811
:10D230002800DB6898472B6823AE3081DB68280024
:10D24000984770810CE03000FEF7BBFBC74901F046
:10D2500075FC002804D12B6828009B68984726900D
:10D26000039B01330393069B0433C1E718AE1422DA
:10D270000021300001F0ACFB10AB18930DAB7360D4
:10D280000AABDB8820003381236800259B68984720
:10D29000059A3B6EB0819B180833320023A9280001
:10D2A0003561FFF7D9F80AABDB88AB4216D00AAB81
:10D2B0009A1D13889D4208DA236829005B692000C3
:10D2C000984732ABE8540135F1E7396E059B8C463F
:10D2D00063441889002132ABFFF7A4FD049B01339E
:10D2E000DBB2049370E02800FEF76DFBA4239B01E2
:10D2F000984269D12C1E00D02C1F251D2800FEF756
:10D3000060FB994901F01AFC00285DD02800FEF767
:10D3100058FB974901F012FC002855D02800FEF771
:10D3200050FB944901F00AFC00284DD02800FEF77C
:10D3300048FB8E4901F002FC002845D023682000FC
:10D34000DB6898470DAE18AD30801422002123A869
:10D3500001F03EFB03220021280001F039FB0223EB
:10D36000AB7023682000DB689847328880B2801A4F
:10D3700003000121581E8341A87888431843A870F0
:10D38000F8680E312B78002800D1E6E001208B43AD
:10D3900003430B4020210B432B7010AB239318AB9E
:10D3A0002493236823AEDB68328120009847002550
:10D3B000B0810BAA310028003561FFF74FF80DABA3
:10D3C0001B88AB4200D0D9E0019B01330193029B43
:10D3D00004330293E8E50024099BA34220D01E00F9
:10D3E0002500023EF6B23400B54219DA7B9AAB0052
:10D3F000D4582000FEF7E7FAA0239B01984202D1FF
:10D400003A00643207E02000FEF7DDFA5A4B9842FA
:10D4100004D13A006D321378013313700135E2E71D
:10D420003B00643318780C23584301F0A5FA3B0005
:10D43000B8666D331878A400000101F09DFA7B9E58
:10D440003867331904930023029301930393049BD9
:10D450009E426ED034682000FEF7B3FA010032A875
:10D46000FEF7A3FF32A8FEF7CFFF050032A8FEF7B4
:10D47000CDFF022808D16B7829781B021DAA0B4327
:10D4800013800123937019E01022290023A801F0D2
:10D4900096FA6B7B2A7B1B02134371211DAA138012
:10D4A00000230AAA5218137001390AAA52181370DD
:10D4B00022390AABC91823A8FEF7DEFF2000FEF7C9
:10D4C00082FAA0239B01984214D10C20019B0021D9
:10D4D0005843BB6E1B181C601D9A5A60BB6E042219
:10D4E0001818083001F074FA019B03940133DBB281
:10D4F00001931CE02000FEF766FA1F4B984216D1FC
:10D50000029B3A6F1B01D218211E00D0211F11600F
:10D51000039951601D99916000213A6FD2181173DF
:10D520003A6FD318D981029B0133DBB202930436E0
:10D530008DE7F868002803D0FEF74BFA002831D1B8
:10D540003B6838009B69984773B0F0BD0BAA10A9DF
:10D550000120FEF77FFF089536E701208B43034348
:10D560000B40102117E7C046E2EC01005CF001001F
:10D5700061F0010066F00100032800000DAA138885
:10D580009D4208DA236829001B692000984732ABC6
:10D59000E8540135F2E70BAB1888002132ABFFF7F6
:10D5A00041FC11E739001C2300223C31F868FEF7EA
:10D5B00034FAC5E70023F0B504000E0089B00093EB
:10D5C0000133019323005D331B78009A9A4253DAAA
:10D5D00014255543236E5D192B68B34248D1636B04
:10D5E0009E4204D1236831005B6A2000984733686B
:10D5F00030001B69984702ABD88033683000DB6885
:10D600002F89984702AA030006323800002104AF90
:10D61000FFF708FC10220021380001F0D9F92B890E
:10D620003B8002AB0633BB602B7C002B0ED022006C
:10D630005C321378002B08D0013B13700123BB70C0
:10D64000208F3900FEF70EFF00E001936B7C002B6A
:10D650000ED022005C321378002B08D0013B1370EF
:10D660000223BB70208F3900FEF7FCFE00E001931F
:10D67000009B01330093A5E7019809B0F0BD0000BD
:10D6800010B50400FEF7E2FA0E4B002108332360C8
:10D6900023003333197001235B42238720002300CA
:10D6A0003C305C3361631C22197059702166197219
:10D6B000A1661974597421671976A06501F088F97B
:10D6C000200010BDF8EF010003210A4802680A4358
:10D6D0000260094802680A4302600849084A094B87
:10D6E0009B1A03DD043BC858D050FBDC00F012F855
:10D6F000FDF740FD240500405405004070F2010094
:10D700008020002074210020FEE7FEE7FEE7FEE710
:10D71000FEE7FEE7014A024B1A6070470024F4005E
:10D72000AC200020084A0949094B10B51B688858ED
:10D73000FA22190A1B0618439200002300F038FD54
:10D740004904C00B084310BD04050000001001404F
:10D750007424002070B5041E09D0FFF7E3FF050014
:10D7600000F014F8FFF7DEFF401B8442F8D870BDCC
:10D770000022044B9A60044A13680133DBB2136041
:10D780007047C046FC100140742400207047000020
:10D79000F7B500231F2877D83C4B8000C258042AD5
:10D7A00014D006D8022A0DD00ED80423012A14D092
:10D7B00069E0062A0ED00BD31A2A0DD002231B2AA9
:10D7C0000BD060E0082308E0102306E0202304E0EB
:10D7D000402302E0802300E001232D4A1268082A3A
:10D7E00004D9092A05D00A21022404E008210024D2
:10D7F00001E011000124A02501261C272548ED0089
:10D800004651254D254E2D681B02AD003D4001952A
:10D81000234D2D6800958559AC466746214D3D4006
:10D820001D4385518359C0259C46009BAD021D4078
:10D83000FF2367461B023B402B43019D1D43009B7A
:10D840005F0160231F402B003B431C430123845195
:10D85000154C036063680F48002BFBD00024124B6B
:10D8600001255C60A123DB00C3584560A025ED00C5
:10D8700044511BB2914207D002D98A1AD34003E027
:10D88000521A934000E000231800FEBD6CF0010026
:10D89000B820002000700040B420002004050000E3
:10D8A000B0200020FF00FFFFFC7000401E4BF0B5D1
:10D8B000596C18001D4A002914D0A025A126002368
:10D8C0000124ED05F600D1584F1C06D0D7187F680B
:10D8D000002F02D027008F40AF5114333C2BF2D1E0
:10D8E00000234364131DA0254032944600200124E8
:10D8F0000F4EED05DA680F49920057180A49521881
:10D90000526C002A0CD01A1F1268511C05D01968DD
:10D91000FF2902D021009140A9513A00FC32506405
:10D9200014339C45E6D1F0BDFC900040BC200020A3
:10D930000C0500000090004000B51F2816D80C4AC6
:10D9400083009B58032911D8A0220800C133FF335C
:10D95000D2059B0000F0ACFA02080406002104E0A6
:10D960000C2102E0042100E00321D15000BDC0469B
:10D970006CF001001F280DD8074B8000C25801230E
:10D980009340A022D205002901D1044901E0A12140
:10D99000C90053507047C0466CF001000C050000F0
:10D9A000030000201F2B0AD8A222A021D200C90503
:10D9B0008858034A9B009B58D84001231840704761
:10D9C0006CF00100F7B506000D000C008B180193F8
:10D9D000019B671B9C4207D0336821781B6830008D
:10D9E000984701340028F3D13800FEBD10B5036814
:10D9F0001B68984710BDF0B5160000228DB002AB31
:10DA0000053301900D00DA77012E00D80A260BAC01
:10DA10002800310000F0DCFA0F00CBB22800310002
:10DA2000009300F04FFAFBB237330500013CDBB244
:10DA3000092F02D8009B3033DBB22370002DE7D1D1
:10DA400021000198FDF7A5FD0DB0F0BDF8B5060069
:10DA50000C00151E04D10368C9B21B68984714E076
:10DA6000D2B20A2D0DD12A0000290ADA2D21FFF7A2
:10DA7000BDFF614207002A003000FFF7BCFF3818E5
:10DA800003E021003000FFF7B6FFF8BD10B5FFF747
:10DA9000DDFF10BD0120704710B503681322DB695C
:10DAA000984710BD704700000369054A9950FC3340
:10DAB0001A6A002AFCD0002201201A627047C04670
:10DAC0001C050000030010B55C331A781F231340B7
:10DAD0000122110099400D4B0424D967C22103692A
:10DAE00089005C505A60DA60A0220021D20099506F
:10DAF0000122074952425A50064914305A500C39F3
:10DB00005A5008315A5000F0B1F910BD04E100E05C
:10DB10000C0500001405000010B5143000F0B8F931
:10DB200010BD10B5143000F0B9F910BD10B51430A7
:10DB300000F0A0F910BD0000030070B55E331C7842
:10DB40000269604BD45003005D331C785E4BD450A7
:10DB5000030061331C785D4B012C0CD105005F354F
:10DB60002E78A225ED005651050060352E78A125AE
:10DB7000ED00565100E00024D4509623DB0099427A
:10DB800038D996231B01994237D996235B019942D4
:10DB900036D996239B01994234D9E1239B019942BE
:10DBA00032D99623DB01994231D9E123DB01994235
:10DBB0002FD996231B0299422DD9E1231B029942AA
:10DBC0002BD996235B02994229D9E1235B02994222
:10DBD00027D9E1239B02994225D93D4B994224D96B
:10DBE000E123DB02994223D9E1231B03994221D887
:10DBF000384B21E09E23DB021EE09D231B031BE02C
:10DC0000354B19E0354B17E0EC239B0314E0344B04
:10DC100012E0344B10E0344B0EE0344B0CE0344B4C
:10DC20000AE0344B08E0344B06E08023DB0403E0D9
:10DC3000324B01E080235B0531490024535004231B
:10DC4000243953501100FC31CC600C62C1210134E5
:10DC5000890014605C309460535003781F202200C8
:10DC6000D9B20840824080342648FF345BB202516A
:10DC7000002B13DA0F230B40083B234C9B089B001F
:10DC80001B1903242140A140FC348C40DD69A543CD
:10DC9000C0248C4021002943D96111E0194C9B0814
:10DCA0009B001B1903242140A140C025FC348C405B
:10DCB000AD005E59A643C0248C4021003143595128
:10DCC000026070BD0C050000140500006C0500002A
:10DCD00090D0030000D0BE0E00B01300005027000B
:10DCE00000A04E0000F0750000509D0000F0EB0019
:10DCF00000903A0100E0D70100B0AF0300705F0769
:10DD00002405000000E100E000ED00E0F7B500931D
:10DD100008AB1B7800250193FA2304009B00836065
:10DD20000E4B45600833036014300F00160000F0FE
:10DD300087F823005C3327611E70009B084A9B0014
:10DD4000995823005D331970019B20009B009A585D
:10DD500023005E33DD701A70FEBDC046ECF001009A
:10DD60006CF00100036910B51A00FC32D26804009F
:10DD7000002A0AD0A322D20099581430C9B200F068
:10DD80006AF800222369FC33DA6010BD10B502483E
:10DD9000FFF7E8FF10BDC04678240020012307B537
:10DDA00002220093024900230248FFF7AFFF07BD9C
:10DDB00000200040782400207047000010B500F0DB
:10DDC00015F8FFF7F9FF0120FFF7C4FCFDF7F0FBA2
:10DDD000FDF73CFC024B002BFAD000E000BFF7E758
:10DDE0000000000010B500F0D1FD10BDC421114AA3
:10DDF00089005058104B0340C02000020343535089
:10DE0000802391399B02FF3953501360A321802353
:10DE100001220020DB05C9005A509A60074B1039D7
:10DE20005850C120022180001950403019501A600A
:10DE30007047C04600E100E0FF00FFFF0010014016
:10DE400010B540220021040000F0C2FD0023200094
:10DE50002364636410BD3F23026C10B5541C23403F
:10DE6000446C9C4201D08154036410BD00230364C0
:10DE700043647047436C026C934206D03F21C25CFE
:10DE800001330B404364100001E001204042704721
:10DE9000036C406C181A00D540307047436C026C1C
:10DEA000934201D0C05C01E0012040427047000075
:10DEB00002B4714649084900095C49008E4402BC1D
:10DEC0007047C046002243088B4274D303098B423B
:10DED0005FD3030A8B4244D3030B8B4228D3030C3A
:10DEE0008B420DD3FF22090212BA030C8B4202D3DC
:10DEF0001212090265D0030B8B4219D300E0090A04
:10DF0000C30B8B4201D3CB03C01A5241830B8B420C
:10DF100001D38B03C01A5241430B8B4201D34B03F5
:10DF2000C01A5241030B8B4201D30B03C01A52415A
:10DF3000C30A8B4201D3CB02C01A5241830A8B42DF
:10DF400001D38B02C01A5241430A8B4201D34B02C8
:10DF5000C01A5241030A8B4201D30B02C01A52412C
:10DF6000CDD2C3098B4201D3CB01C01A52418309E0
:10DF70008B4201D38B01C01A524143098B4201D31A
:10DF80004B01C01A524103098B4201D30B01C01A45
:10DF90005241C3088B4201D3CB00C01A52418308BF
:10DFA0008B4201D38B00C01A524143088B4201D3EC
:10DFB0004B00C01A5241411A00D20146524110464C
:10DFC0007047FFE701B5002000F0F0F802BDC04641
:10DFD0000029F7D076E7704703460B437FD4002231
:10DFE00043088B4274D303098B425FD3030A8B42ED
:10DFF00044D3030B8B4228D3030C8B420DD3FF2257
:10E00000090212BA030C8B4202D31212090265D024
:10E01000030B8B4219D300E0090AC30B8B4201D3D7
:10E02000CB03C01A5241830B8B4201D38B03C01A1E
:10E030005241430B8B4201D34B03C01A5241030B95
:10E040008B4201D30B03C01A5241C30A8B4201D346
:10E05000CB02C01A5241830A8B4201D38B02C01AF1
:10E060005241430A8B4201D34B02C01A5241030A68
:10E070008B4201D30B02C01A5241CDD2C3098B424D
:10E0800001D3CB01C01A524183098B4201D38B01CA
:10E09000C01A524143098B4201D34B01C01A52416D
:10E0A00003098B4201D30B01C01A5241C3088B42B2
:10E0B00001D3CB00C01A524183088B4201D38B009D
:10E0C000C01A524143088B4201D34B00C01A52413F
:10E0D000411A00D201465241104670475DE0CA0F16
:10E0E00000D04942031000D34042534000229C46D6
:10E0F00003098B422DD3030A8B4212D3FC228901E0
:10E1000012BA030A8B420CD3890192118B4208D3B5
:10E11000890192118B4204D389013AD0921100E017
:10E120008909C3098B4201D3CB01C01A524183092B
:10E130008B4201D38B01C01A524143098B4201D358
:10E140004B01C01A524103098B4201D30B01C01A83
:10E150005241C3088B4201D3CB00C01A52418308FD
:10E160008B4201D38B00C01A5241D9D243088B4253
:10E1700001D34B00C01A5241411A00D201466346F6
:10E1800052415B10104601D34042002B00D549425A
:10E19000704763465B1000D3404201B5002000F099
:10E1A00005F802BD0029F8D016E770477047C04651
:10E1B000F0B54F464646C0B41604360C99463300B7
:10E1C00005042C0C070C150C63437E436F43654319
:10E1D0001C0CAD1964199C46A64203D980235B022E
:10E1E000984647446346250CEF191D044B464A43A5
:10E1F00043432D0C240464199918C91920000CBC40
:10E2000090469946F0BDC046F0B55F4656464D462D
:10E210004446F0B40D0399464E002B0B87B007001F
:10E22000924680469B46760DCC0F002E69D06D4BF2
:10E230009E4235D05B468022DD001204430F13431B
:10E240002B439B46C3009846674B00279C46002300
:10E25000664401934A4615035000D20F53462D0BD6
:10E26000400D914600D176E05E4A90426CD080220B
:10E270005B0F120413435C4AED0094461D43534662
:10E280000022DB00604449463618701C6140029051
:10E2900017430F2F00D9AFE05448BF00C759BF46FE
:10E2A0005B461F4300D088E000239B46984602331C
:10E2B00008270193CEE74946022A6AD0032A00D1F3
:10E2C00009E2012A00D0BBE1114000220023002511
:10E2D0009046CCB200212D030A0D12052D0B1543DB
:10E2E000434A1B0515401D436D00E4076D08254397
:10E2F0004046290007B03CBC90469946A246AB4632
:10E30000F0BD034352D05B46002B00D18AE1584652
:10E3100000F0C2FA03000B3B1C2B00DD7BE11D2249
:10E32000D31A3A0001005D46DA4008398D401300E7
:10E330008F402B439B46B8462E4B00279C4600231C
:10E3400060444642019385E752462A432CD100257A
:10E350000023022297E752462A4321D0002D00D104
:10E3600054E1280000F098FA03000B3B1C2B00DD61
:10E3700046E11D21CB1A51460200D9405346083AC6
:10E38000954093400D431B4A94466044404200220E
:10E3900079E7012400220C40124B0025904699E7B2
:10E3A0000025002301226EE703226CE700239B4631
:10E3B00098460133042701934CE703230C2701936C
:10E3C00048E700238025984600242D03054B81E76C
:10E3D0005D464346019A6FE75D4643462100019A38
:10E3E0006AE7C046FF07000001FCFFFF1CF10100C7
:10E3F000FFFF0F80F30300004246120C91461A0CF7
:10E400009446424617044A461B041B0C5A43604676
:10E4100090464A4642431000039262461C003F0C5D
:10E420007A437C4342440192220C9246019A524420
:10E43000904506D98246802040028046C24450461C
:10E440000390100C049048462404240C1204121962
:10E4500005922A0C2D042D0C68432C008246484658
:10E460007C4350438146200C8046574357444744E1
:10E47000BA4503D9802040028046C144380C3F048D
:10E48000B84648442404240C01900498A044404415
:10E4900004905846000C814658460404200C8246DD
:10E4A000070048465F434C4643436046604364462A
:10E4B000834650464443380C8446E4186444A342DF
:10E4C00003D980235B029C46E34448463F04230C67
:10E4D0003F0C2404E419574668436F4384464D4675
:10E4E000504655434243380C814662444A445B449B
:10E4F000944503D9802040028446654403983F0434
:10E50000834604983F0C8446E344C345804140421F
:10E510008246100484460198674484466744A344B5
:10E52000BC46A345A4419946D44464428742BF41B6
:10E53000D4458041E144A04699459B417F424042F9
:10E54000C8440743120CBA18A045A4415F423B00DF
:10E5500064422343D71843467D19DB0D6D021D43EA
:10E560005B465A02059B1A43531E9A415B46DB0DDC
:10E570001A4343465B021343EA0107D501225C08B4
:10E5800013402343EA07029E13436D08574AB2180B
:10E59000002A4BDD580709D00F201840042805D069
:10E5A000181D98429B415B42ED180300E80104D519
:10E5B0004F4A15408022D200B2184E48824200DDF8
:10E5C000E7E60124DB08680718436D02530580461F
:10E5D0002D0B5B0D0C407DE6802259461203114243
:10E5E00008D0154206D115432D0398462D0B4C46F5
:10E5F000414B6FE65D4615432D032D0B3E4B69E6FF
:10E6000003005546283B9D400023BCE6504600F0E1
:10E6100043F92030A8E60300283B9F400023BB4677
:10E62000984689E600F038F9203073E60124A61AEE
:10E63000382E07DD00220C4000230025904649E6D5
:10E64000029EA3E71F2E20DC20222C001800921B24
:10E65000F040944093400443581E83411C43F540CE
:10E66000630709D00F232340042B05D023001C1D72
:10E670009C4292415242AD182B021FD50124002228
:10E680000C4001230025904624E61F202C00404228
:10E69000821AD440202E1CD04022961BB5402B431A
:10E6A000581E83410720234318400025002809D025
:10E6B0000F2200251A401C00042AD8D12300680725
:10E6C0006D022D0B0124DB08034398460C40002308
:10E6D00000E60025E3E780220124120315432D0301
:10E6E00098462D0B0C40044BF4E5C046FF03000098
:10E6F000FFFFFFFEFE070000FF07000070B50028C7
:10E7000030D0C317C4185C40C50F200000F0C4F817
:10E71000174B184A1B1AD21A1F2A18DD164AD21A8A
:10E720009440002224035B05240B5B0D00211000A4
:10E7300024030A0D1205240B1443104A1B05144030
:10E740001C436400ED0764082C43210070BD2100C8
:10E7500091400A000B21081AC4405B052403240BD6
:10E760005B0DE3E70025002300240022DEE7C0461E
:10E770001E0400003304000013040000FFFF0F809C
:10E780004B0070B55E0D0C03751C640A420F6D05DD
:10E790002243C90FC4006D0D012D2ADD3B4BF31838
:10E7A000FE2B1ADC002B42DD8001451EA841D20061
:10E7B0001043620F0243500704D00F20104004287A
:10E7C00000D004328020C004104021D00133FF2B40
:10E7D00003D09201520ADBB201E0FF230022520271
:10E7E000520ADB0513435B00C9075B080B431800A3
:10E7F00070BD002E07D01443EFD08020D2008004DB
:10E800000243FF23D7E722430023002A03D0052237
:10E81000D208FF2B03D05202520ADBB2DFE7002AF4
:10E8200032D08020C00302435202520AD7E71800B8
:10E83000173014DB8020000402431E20C01A1F285A
:10E840000FDC2500124BF3189D406E1EB5419A4017
:10E850002B0013432200C2401A430023ABE70023DE
:10E86000D5E702256D42EB1A1500DD40202809D0BE
:10E87000084BF3189A401443621E9441220000236F
:10E880002A4398E70022F6E70022A8E780FCFFFF72
:10E8900082FCFFFFA2FCFFFF1C2101231B04984206
:10E8A00001D3000C10391B0A984201D3000A083921
:10E8B0001B09984201D30009043902A2105C4018D8
:10E8C0007047C0460403020201010101000000007C
:10E8D000000000000B0010B50100180000F002F865
:10E8E00010BD000070B5054C05001300201E04D0BB
:10E8F0000A000220290000E000BF70BD00000000F7
:10E90000084B10B50400002B02D0002100E000BF2E
:10E91000054B1868836A002B00D09847200000F050
:10E92000BDF9C046000000005CF101000E4B70B55F
:10E9300000251E000D4CE41AA410A54204D0AB0023
:10E94000F35898470135F8E700F0AAF9084B00257D
:10E950001E00084CE41AA410A54204D0AB00F358E2
:10E9600098470135F8E770BD602100206021002044
:10E97000602100206C21002010B5034B01001868B5
:10E9800000F074F810BDC0465821002010B5034BAC
:10E990000100186800F024F810BDC046582100207E
:10E9A00030B50024A24208D0035D651C0C5DA34273
:10E9B00001D0181B02E02C00F4E7002030BD00233A
:10E9C00010B59A4203D0CC5CC4540133F9E710BDB2
:10E9D00003008218934202D019700133FAE770479E
:10E9E00030B500293ED004390B68002B00DAC91875
:10E9F0001D4A13681400002B02D14B60116031E0F6
:10EA00008B420DD90A688818834203D118685B6865
:10EA100082180A604B60216024E08A4203D8130008
:10EA20005A68002AF9D11D685C198C420BD109681B
:10EA3000691858181960824214D110685268411838
:10EA400019605A600EE08C4202D90C23036009E081
:10EA500008680C18A24203D1146852682018086094
:10EA60004A60596030BDC046E0240020032370B5E1
:10EA7000CD1C9D43083506000C2D01D20C2505E068
:10EA8000002D03DA0C230020336040E0A942F9D8BE
:10EA90001F4B1C681A002100002913D00B685B1B58
:10EAA0000DD40B2B02D90B60CC181EE08C4202D186
:10EAB000636813601AE04B6863600C0016E00C009A
:10EAC0004968E9E7134C2368002B03D1300000F0BC
:10EAD00023F820602900300000F01EF8431CD1D03C
:10EAE0000323C41C9C43A0420AD1256020000722B6
:10EAF0000B30231D9043C31A09D05A42E25006E05E
:10EB0000211A300000F008F8431CEED1BAE770BDBE
:10EB1000E0240020DC240020002370B5064C050012
:10EB20000800236000F0ACF8431C03D12368002BDD
:10EB300000D02B6070BDC046E824002002780B781E
:10EB4000002A03D0013001319A42F7D0D01A704721
:10EB50000023C25C0133002AFBD1581E704700001D
:10EB6000F0B51E003F4B87B01B680491029317005D
:10EB70000B00082105901C78029A5D1C121952782E
:10EB80000A4001D02B00F6E72D2C04D19D1C5C78A7
:10EB90000123019304E001922B2C01D15C789D1C90
:10EBA000002E02D0102E0AD157E0302C53D1202253
:10EBB0002B789343582B49D110266C7802350120CD
:10EBC00031004042FFF77EF90390012031004042BE
:10EBD000FFF7FEF900238C461800029A12195178AB
:10EBE0000422114201D0303C07E00322114017D02B
:10EBF0003432012900D02032A41AA64210DD002BA5
:10EC000009DB039B984206D801D1644503DC7043BD
:10EC10000123201801E001235B422C780135DCE759
:10EC2000002B07DA22230120059A40421360002FAF
:10EC300009D115E0019A002A00D04042002F0FD0E0
:10EC4000049A002B00D06A1E3A6009E03024002E9E
:10EC5000B5D10826B3E70A26B1E7302CA7D0AEE736
:10EC600007B0F0BD5C21002010B513000A000100C0
:10EC700002480068FFF774FF10BDC046582100200D
:10EC8000044A1368002B03D018181060180070474E
:10EC9000014BF9E7E4240020F0240020FEE7C04601
:10ECA000F8B5C046F8BC08BC9E467047F8B5C046EB
:10ECB000F8BC08BC9E4670473645343030303031A1
:10ECC0002D423541332D463339332D453041392DD1
:10ECD000453530453234444343413945005541526E
:10ECE0005400323930310036453430303030322D36
:10ECF000423541332D463339332D453041392D4589
:10ED00003530453234444343413945005258202D73
:10ED100020526563656976652044617461202857D7
:10ED200072697465290036453430303030332D42F5
:10ED30003541332D463339332D453041392D453555
:10ED400030453234444343413945005458202D2046
:10ED50005472616E73666572204461746120284E3E
:10ED60006F7469667929000000000000000000004F
:10ED700029BE010049BE0100E5BD0100F9BD010049
:10ED80000DBE010065BE010077BE010025BE010079
:10ED900027BE010027BE010021B5010081B5010099
:10EDA00095BC0100B1BC0100CDBC0100E9BC010073
:10EDB00005BD010021BD01003DBD010059BD01009F
:10EDC00075BD010091BD0100ADBD0100C9BD0100CF
:10EDD000EDB1010025B2010065B20100D1B401001E
:10EDE000B9B20100B1B20100FCFFFFFF000000005A
:10EDF000A1BC0100BDBC0100D9BC0100F5BC0100F3
:10EE0000F8FFFFFF0000000011BD01002DBD010053
:10EE100049BD010065BD010081BD01009DBD01002E
:10EE2000B9BD0100D5BD010088FEFFFF0000000054
:10EE3000F9B20100C5D901000DB2010099B201007B
:10EE40004DB2010009B5010044657653746F6E65DB
:10EE50004D6B314B4400454D4700360037003800BC
:10EE600041004200430000000000000000000000DC
:10EE7000CDBA0100E9BA010079BA01007DBA0100FA
:10EE800081BA010089BA010085BA0100FBBA01000C
:10EE9000B1BA01008FBA01000000000000000000BC
:10EEA000B5BB0100C5BB0100B7BB0100BBBB010086
:10EEB000BFBB010000000000000000003DBC0100DD
:10EEC0003FBC0100F9BB0100FBBB0100FDBB010021
:10EED000FFBB010003BC010005BC010007BC010031
:10EEE0000BBC01000FBC010013BC010017BC0100EA
:10EEF0001BBC01001FBC010023BC010027BC01009A
:10EF00002BBC01002FBC010033BC010037BC010049
:10EF100039BC01003BBC0100313830300032613077
:10EF200030003261303100313830310032613035FB
:10EF30000041726475696E6F0000000000000000FF
:10EF40000000000029BE010049BE0100E5BD01002E
:10EF5000F9BD01000DBE010065BE010077BE0100D4
:10EF600025BE010027BE010027BE010071C10100BE
:10EF7000D9C1010095BC0100B1BC0100CDBC0100AC
:10EF8000E9BC010005BD010021BD01003DBD01003E
:10EF900059BD010075BD010091BD0100ADBD01006D
:10EFA000C9BD0100FCFFFFFF00000000A1BC010083
:10EFB000BDBC0100D9BC0100F5BC0100F8FFFFFF9A
:10EFC0000000000011BD01002DBD010049BD010080
:10EFD00065BD010081BD01009DBD0100B9BD0100FD
:10EFE000D5BD0100000000000000000019C30100B1
:10EFF0001BC301000100000700000000000000002A
:10F00000F5CD010011CE010041CE0100CBC80100B9
:10F01000BFCD0100F3C60100B3C701004FC7010017
:10F02000B5D50100E9C7010089C4010089C4010008
:10F0300095C40100D1C4010019C5010065C50100D6
:10F04000DDC5010015C6010081C601008BC60100A7
:10F050005BC7010079C70100B1C701003239303404
:10F060000032393032003239303300000000000005
:10F070000100000002000000030000000400000086
:10F080000500000006000000070000000800000066
:10F09000090000000A0000000B0000000C00000046
:10F0A0000D0000000E0000000F0000001000000026
:10F0B0001100000012000000130000001400000006
:10F0C00015000000160000001700000018000000E6
:10F0D000190000001A0000001B0000001C000000C6
:10F0E0001D0000001E0000001F00000000000000C6
:10F0F00000000000A9DA0100C5D9010019DB0100F8
:10F100002DDB010023DB0100A5DA010099DA010003
:10F1100039DB0100C5DA010095DA0100F8E30100EE
:10F12000B8E20100B8E20100B6E20100D0E301005C
:10F13000D0E30100C2E30100B6E20100D0E3010028
:10F14000C2E30100D0E30100B6E20100D8E3010010
:10F15000D8E30100D8E30100D8E50100F820002041
:10F160000020202020202020202028282828282097
:10F17000202020202020202020202020202020208F
:10F1800020881010101010101010101010101010F7
:10F1900010040404040404040404041010101010E7
:10F1A00010104141414141410101010101010101B1
:10F1B0000101010101010101010101011010101003
:10F1C0001010424242424242020202020202020283
:10F1D00002020202020202020202020210101010D7
:10F1E00020000000000000000000000000000000FF
:10F1F000000000000000000000000000000000000F
:10F2000000000000000000000000000000000000FE
:10F2100000000000000000000000000000000000EE
:10F2200000000000000000000000000000000000DE
:10F2300000000000000000000000000000000000CE
:10F2400000000000000000000000000000000000BE
:10F2500000000000000000000000000000000000AE
:08F260000000000000000000A6
:08F268000CBFFF7F0100000054
:10F270000000000011000000120000001300000058
:10F280001400000004000000F4010000150000005C
:10F290001600000017000000180000000024F40011
:10F2A00003000000020000000A000000FFFFFFFF53
:10F2B000000000000100000000000200010000004A
:10F2C000FFFFFFFF0000000002000000000004003C
:10F2D00002000000FFFFFFFF00000000030000002D
:10F2E0000000080003000000000000000000000013
:10F2F000000000000000000000000000000000000E
:10F30000000000000000000064EE010000000000AA
:10F3100000000000000000000000000000000000ED
:10F3200000000000000000000000000000000000DD
:10F3300000000000000000000000000000000000CD
:10F340000000000000000000F820002060F1010033
:10F3500039B1010095B901009DDD01000DB1010039
:04F3600000000000A9
:040000031000D6C94A
:00000001FF
